{"abi":[{"type":"constructor","inputs":[{"name":"initialOwner","type":"address","internalType":"address"}],"stateMutability":"nonpayable"},{"type":"function","name":"allTokens","inputs":[{"name":"","type":"uint256","internalType":"uint256"}],"outputs":[{"name":"","type":"address","internalType":"address"}],"stateMutability":"view"},{"type":"function","name":"claimTokens","inputs":[{"name":"tokenAddress","type":"address","internalType":"address"}],"outputs":[],"stateMutability":"nonpayable"},{"type":"function","name":"createToken","inputs":[{"name":"params","type":"tuple","internalType":"struct WorldCoinsFactory.TokenParams","components":[{"name":"name","type":"string","internalType":"string"},{"name":"symbol","type":"string","internalType":"string"},{"name":"description","type":"string","internalType":"string"}]}],"outputs":[{"name":"tokenAddress","type":"address","internalType":"address"}],"stateMutability":"nonpayable"},{"type":"function","name":"creatorToToken","inputs":[{"name":"","type":"address","internalType":"address"}],"outputs":[{"name":"","type":"address","internalType":"address"}],"stateMutability":"view"},{"type":"function","name":"getAllTokens","inputs":[],"outputs":[{"name":"","type":"address[]","internalType":"address[]"}],"stateMutability":"view"},{"type":"function","name":"getClaimStats","inputs":[{"name":"tokenAddress","type":"address","internalType":"address"}],"outputs":[{"name":"claimers","type":"uint256","internalType":"uint256"},{"name":"totalClaimed","type":"uint256","internalType":"uint256"},{"name":"availableSupply","type":"uint256","internalType":"uint256"}],"stateMutability":"view"},{"type":"function","name":"getTokenByCreator","inputs":[{"name":"creator","type":"address","internalType":"address"}],"outputs":[{"name":"","type":"address","internalType":"address"}],"stateMutability":"view"},{"type":"function","name":"getTokenCount","inputs":[],"outputs":[{"name":"","type":"uint256","internalType":"uint256"}],"stateMutability":"view"},{"type":"function","name":"getTokenDetails","inputs":[{"name":"tokenAddress","type":"address","internalType":"address"}],"outputs":[{"name":"name","type":"string","internalType":"string"},{"name":"symbol","type":"string","internalType":"string"},{"name":"totalSupply","type":"uint256","internalType":"uint256"},{"name":"maxSupply","type":"uint256","internalType":"uint256"},{"name":"claimAmount","type":"uint256","internalType":"uint256"},{"name":"creator","type":"address","internalType":"address"},{"name":"description","type":"string","internalType":"string"}],"stateMutability":"view"},{"type":"function","name":"hasClaimed","inputs":[{"name":"","type":"address","internalType":"address"},{"name":"","type":"address","internalType":"address"}],"outputs":[{"name":"","type":"bool","internalType":"bool"}],"stateMutability":"view"},{"type":"function","name":"hasCreatedToken","inputs":[{"name":"","type":"address","internalType":"address"}],"outputs":[{"name":"","type":"bool","internalType":"bool"}],"stateMutability":"view"},{"type":"function","name":"hasUserClaimed","inputs":[{"name":"user","type":"address","internalType":"address"},{"name":"tokenAddress","type":"address","internalType":"address"}],"outputs":[{"name":"","type":"bool","internalType":"bool"}],"stateMutability":"view"},{"type":"function","name":"isValidToken","inputs":[{"name":"","type":"address","internalType":"address"}],"outputs":[{"name":"","type":"bool","internalType":"bool"}],"stateMutability":"view"},{"type":"function","name":"owner","inputs":[],"outputs":[{"name":"","type":"address","internalType":"address"}],"stateMutability":"view"},{"type":"function","name":"renounceOwnership","inputs":[],"outputs":[],"stateMutability":"nonpayable"},{"type":"function","name":"transferOwnership","inputs":[{"name":"newOwner","type":"address","internalType":"address"}],"outputs":[],"stateMutability":"nonpayable"},{"type":"event","name":"OwnershipTransferred","inputs":[{"name":"previousOwner","type":"address","indexed":true,"internalType":"address"},{"name":"newOwner","type":"address","indexed":true,"internalType":"address"}],"anonymous":false},{"type":"event","name":"TokenClaimed","inputs":[{"name":"claimer","type":"address","indexed":true,"internalType":"address"},{"name":"tokenAddress","type":"address","indexed":true,"internalType":"address"},{"name":"amount","type":"uint256","indexed":false,"internalType":"uint256"}],"anonymous":false},{"type":"event","name":"TokenCreated","inputs":[{"name":"creator","type":"address","indexed":true,"internalType":"address"},{"name":"tokenAddress","type":"address","indexed":true,"internalType":"address"},{"name":"name","type":"string","indexed":false,"internalType":"string"},{"name":"symbol","type":"string","indexed":false,"internalType":"string"}],"anonymous":false},{"type":"error","name":"AlreadyClaimed","inputs":[]},{"type":"error","name":"InsufficientSupply","inputs":[]},{"type":"error","name":"InvalidToken","inputs":[]},{"type":"error","name":"InvalidTokenParameters","inputs":[]},{"type":"error","name":"OwnableInvalidOwner","inputs":[{"name":"owner","type":"address","internalType":"address"}]},{"type":"error","name":"OwnableUnauthorizedAccount","inputs":[{"name":"account","type":"address","internalType":"address"}]},{"type":"error","name":"ReentrancyGuardReentrantCall","inputs":[]},{"type":"error","name":"TokenAlreadyCreated","inputs":[]},{"type":"error","name":"TokenNotFound","inputs":[]}],"bytecode":{"object":"0x608060405234801561000f575f80fd5b506040516125c03803806125c083398101604081905261002e916100bf565b806001600160a01b03811661005c57604051631e4fbdf760e01b81525f600482015260240160405180910390fd5b61006581610070565b5050600180556100ec565b5f80546001600160a01b038381166001600160a01b0319831681178455604051919092169283917f8be0079c531659141344cd1fd0a4f28419497f9722a3daafe3b4186f6b6457e09190a35050565b5f602082840312156100cf575f80fd5b81516001600160a01b03811681146100e5575f80fd5b9392505050565b6124c7806100f95f395ff3fe608060405234801562000010575f80fd5b506004361062000110575f3560e01c806388aa8bee116200009f578063aaf820a6116200006b578063aaf820a614620002a9578063c187645314620002dc578063df8de3e71462000301578063f2fde38b1462000318575f80fd5b806388aa8bee146200022557806389266f6014620002515780638d98798214620002815780638da5cb5b1462000298575f80fd5b8063634282af11620000df578063634282af14620001ba578063715018a614620001d157806378a8956714620001dd5780637e1cc91214620001ef575f80fd5b8063049b3409146200011457806315a2466c146200015f5780632a5c792a146200018a57806335e142c914620001a3575b5f80fd5b620001426200012536600462000c24565b6001600160a01b039081165f908152600360205260409020541690565b6040516001600160a01b0390911681526020015b60405180910390f35b620001426200017036600462000c24565b60036020525f90815260409020546001600160a01b031681565b620001946200032f565b60405162000156919062000c49565b62000142620001b436600462000c97565b62000391565b62000142620001cb36600462000cd1565b62000591565b620001db620005ba565b005b60025460405190815260200162000156565b620002146200020036600462000c24565b60066020525f908152604090205460ff1681565b604051901515815260200162000156565b6200023c6200023636600462000c24565b620005d1565b60405162000156979695949392919062000d3a565b620002146200026236600462000daa565b600560209081525f928352604080842090915290825290205460ff1681565b620002146200029236600462000daa565b62000698565b5f546001600160a01b031662000142565b620002c0620002ba36600462000c24565b620006c7565b6040805193845260208401929092529082015260600162000156565b62000214620002ed36600462000c24565b60046020525f908152604090205460ff1681565b620001db6200031236600462000c24565b620008e4565b620001db6200032936600462000c24565b62000b15565b606060028054806020026020016040519081016040528092919081815260200182805480156200038757602002820191905f5260205f20905b81546001600160a01b0316815260019091019060200180831162000368575b5050505050905090565b5f6200039c62000b59565b335f9081526006602052604090205460ff1615620003cd57604051636493366360e01b815260040160405180910390fd5b620003d9828062000de6565b90505f03620003fb57604051637528890160e01b815260040160405180910390fd5b6200040a602083018362000de6565b90505f036200042c57604051637528890160e01b815260040160405180910390fd5b5f62000439838062000de6565b62000448602086018662000de6565b3362000458604089018962000de6565b604051620004669062000c01565b62000478979695949392919062000e5b565b604051809103905ff08015801562000492573d5f803e3d5ffd5b506002805460018181019092557f405787fa12a823e0f2b7631cc41b3ba8828b3321ca811111fa75cd3aa3bb5ace0180546001600160a01b0384166001600160a01b03199182168117909255335f8181526003602090815260408083208054909516861790945584825260048152838220805460ff1990811688179091558383526006909152929020805490921690931790559193508392507fd5d05a8421149c74fd223cfc823befb883babf9bf0b0e4d6bf9c8fdb70e59bb462000558868062000de6565b62000567602089018962000de6565b60405162000579949392919062000eab565b60405180910390a3506200058c60018055565b919050565b60028181548110620005a1575f80fd5b5f918252602090912001546001600160a01b0316905081565b620005c462000b84565b620005cf5f62000bb2565b565b6001600160a01b0381165f908152600460205260408120546060918291819081908190859060ff16620006175760405163c1ab6dc160e01b815260040160405180910390fd5b5f889050806001600160a01b031663abb1dc446040518163ffffffff1660e01b81526004015f60405180830381865afa15801562000657573d5f803e3d5ffd5b505050506040513d5f823e601f3d908101601f1916820160405262000680919081019062000f83565b959f949e50929c50909a509850965090945092505050565b6001600160a01b038083165f9081526005602090815260408083209385168352929052205460ff165b92915050565b6001600160a01b0381165f908152600460205260408120548190819060ff16620007045760405163c1ab6dc160e01b815260040160405180910390fd5b5f8490505f816001600160a01b03166318160ddd6040518163ffffffff1660e01b8152600401602060405180830381865afa15801562000746573d5f803e3d5ffd5b505050506040513d601f19601f820116820180604052508101906200076c919062001040565b90505f826001600160a01b03166332cb6b0c6040518163ffffffff1660e01b8152600401602060405180830381865afa158015620007ac573d5f803e3d5ffd5b505050506040513d601f19601f82011682018060405250810190620007d2919062001040565b90505f836001600160a01b031663270ef3856040518163ffffffff1660e01b8152600401602060405180830381865afa15801562000812573d5f803e3d5ffd5b505050506040513d601f19601f8201168201806040525081019062000838919062001040565b90505f846001600160a01b031663608a98e86040518163ffffffff1660e01b8152600401602060405180830381865afa15801562000878573d5f803e3d5ffd5b505050506040513d601f19601f820116820180604052508101906200089e919062001040565b9050808411620008af575f620008bb565b620008bb818562001058565b9650620008c9828862001078565b9750620008d7848462001058565b9799969850505050505050565b620008ee62000b59565b6001600160a01b0381165f9081526004602052604090205460ff16620009275760405163c1ab6dc160e01b815260040160405180910390fd5b335f9081526005602090815260408083206001600160a01b038516845290915290205460ff16156200096c57604051630c8d9eab60e31b815260040160405180910390fd5b335f8181526005602090815260408083206001600160a01b03861680855290835292819020805460ff19166001179055805163270ef38560e01b8152905185946340c10f19939092859263270ef385926004808401939192918290030181865afa158015620009dd573d5f803e3d5ffd5b505050506040513d601f19601f8201168201806040525081019062000a03919062001040565b6040516001600160e01b031960e085901b1681526001600160a01b03909216600483015260248201526044015f604051808303815f87803b15801562000a47575f80fd5b505af115801562000a5a573d5f803e3d5ffd5b50505050816001600160a01b0316336001600160a01b03167f4831bdd9dcf3048a28319ce81d3cab7a15366bcf449bc7803a539107440809cc836001600160a01b031663270ef3856040518163ffffffff1660e01b8152600401602060405180830381865afa15801562000ad0573d5f803e3d5ffd5b505050506040513d601f19601f8201168201806040525081019062000af6919062001040565b60405190815260200160405180910390a35062000b1260018055565b50565b62000b1f62000b84565b6001600160a01b03811662000b4e57604051631e4fbdf760e01b81525f60048201526024015b60405180910390fd5b62000b128162000bb2565b60026001540362000b7d57604051633ee5aeb560e01b815260040160405180910390fd5b6002600155565b5f546001600160a01b03163314620005cf5760405163118cdaa760e01b815233600482015260240162000b45565b5f80546001600160a01b038381166001600160a01b0319831681178455604051919092169283917f8be0079c531659141344cd1fd0a4f28419497f9722a3daafe3b4186f6b6457e09190a35050565b6113f9806200109983390190565b6001600160a01b038116811462000b12575f80fd5b5f6020828403121562000c35575f80fd5b813562000c428162000c0f565b9392505050565b602080825282518282018190525f9190848201906040850190845b8181101562000c8b5783516001600160a01b03168352928401929184019160010162000c64565b50909695505050505050565b5f6020828403121562000ca8575f80fd5b813567ffffffffffffffff81111562000cbf575f80fd5b82016060818503121562000c42575f80fd5b5f6020828403121562000ce2575f80fd5b5035919050565b5f5b8381101562000d0557818101518382015260200162000ceb565b50505f910152565b5f815180845262000d2681602086016020860162000ce9565b601f01601f19169290920160200192915050565b60e081525f62000d4e60e083018a62000d0d565b828103602084015262000d62818a62000d0d565b6040840189905260608401889052608084018790526001600160a01b03861660a085015283810360c0850152905062000d9c818562000d0d565b9a9950505050505050505050565b5f806040838503121562000dbc575f80fd5b823562000dc98162000c0f565b9150602083013562000ddb8162000c0f565b809150509250929050565b5f808335601e1984360301811262000dfc575f80fd5b83018035915067ffffffffffffffff82111562000e17575f80fd5b60200191503681900382131562000e2c575f80fd5b9250929050565b81835281816020850137505f828201602090810191909152601f909101601f19169091010190565b608081525f62000e7060808301898b62000e33565b828103602084015262000e8581888a62000e33565b6001600160a01b03871660408501528381036060850152905062000d9c81858762000e33565b604081525f62000ec060408301868862000e33565b828103602084015262000ed581858762000e33565b979650505050505050565b634e487b7160e01b5f52604160045260245ffd5b5f82601f83011262000f04575f80fd5b815167ffffffffffffffff8082111562000f225762000f2262000ee0565b604051601f8301601f19908116603f0116810190828211818310171562000f4d5762000f4d62000ee0565b8160405283815286602085880101111562000f66575f80fd5b62000f7984602083016020890162000ce9565b9695505050505050565b5f805f805f805f60e0888a03121562000f9a575f80fd5b875167ffffffffffffffff8082111562000fb2575f80fd5b62000fc08b838c0162000ef4565b985060208a015191508082111562000fd6575f80fd5b62000fe48b838c0162000ef4565b975060408a0151965060608a0151955060808a0151945060a08a015191506200100d8262000c0f565b60c08a01519193508082111562001022575f80fd5b50620010318a828b0162000ef4565b91505092959891949750929550565b5f6020828403121562001051575f80fd5b5051919050565b81810381811115620006c157634e487b7160e01b5f52601160045260245ffd5b5f826200109357634e487b7160e01b5f52601260045260245ffd5b50049056fe60c060405234801562000010575f80fd5b50604051620013f9380380620013f983398101604081905262000033916200034b565b818484600362000044838262000483565b50600462000053828262000483565b5050506001600160a01b0381166200008557604051631e4fbdf760e01b81525f60048201526024015b60405180910390fd5b6200009081620000d1565b50336080526001600160a01b03821660a0526006620000b0828262000483565b50620000c78269010f0cf064dd5920000062000122565b5050505062000571565b600580546001600160a01b038381166001600160a01b0319831681179093556040519116919082907f8be0079c531659141344cd1fd0a4f28419497f9722a3daafe3b4186f6b6457e0905f90a35050565b6001600160a01b0382166200014d5760405163ec442f0560e01b81525f60048201526024016200007c565b6200015a5f83836200015e565b5050565b6001600160a01b0383166200018c578060025f8282546200018091906200054b565b90915550620001fe9050565b6001600160a01b0383165f9081526020819052604090205481811015620001e05760405163391434e360e21b81526001600160a01b038516600482015260248101829052604481018390526064016200007c565b6001600160a01b0384165f9081526020819052604090209082900390555b6001600160a01b0382166200021c576002805482900390556200023a565b6001600160a01b0382165f9081526020819052604090208054820190555b816001600160a01b0316836001600160a01b03167fddf252ad1be2c89b69c2b068fc378daa952ba7f163c4a11628f55a4df523b3ef836040516200028091815260200190565b60405180910390a3505050565b634e487b7160e01b5f52604160045260245ffd5b5f82601f830112620002b1575f80fd5b81516001600160401b0380821115620002ce57620002ce6200028d565b604051601f8301601f19908116603f01168101908282118183101715620002f957620002f96200028d565b8160405283815260209250868385880101111562000315575f80fd5b5f91505b8382101562000338578582018301518183018401529082019062000319565b5f93810190920192909252949350505050565b5f805f80608085870312156200035f575f80fd5b84516001600160401b038082111562000376575f80fd5b6200038488838901620002a1565b955060208701519150808211156200039a575f80fd5b620003a888838901620002a1565b604088015190955091506001600160a01b0382168214620003c7575f80fd5b606087015191935080821115620003dc575f80fd5b50620003eb87828801620002a1565b91505092959194509250565b600181811c908216806200040c57607f821691505b6020821081036200042b57634e487b7160e01b5f52602260045260245ffd5b50919050565b601f8211156200047e575f81815260208120601f850160051c81016020861015620004595750805b601f850160051c820191505b818110156200047a5782815560010162000465565b5050505b505050565b81516001600160401b038111156200049f576200049f6200028d565b620004b781620004b08454620003f7565b8462000431565b602080601f831160018114620004ed575f8415620004d55750858301515b5f19600386901b1c1916600185901b1785556200047a565b5f85815260208120601f198616915b828110156200051d57888601518255948401946001909101908401620004fc565b50858210156200053b57878501515f19600388901b60f8161c191681555b5050505050600190811b01905550565b808201808211156200056b57634e487b7160e01b5f52601160045260245ffd5b92915050565b60805160a051610e58620005a15f395f81816102ed01526105c701525f81816101b1015261040c0152610e585ff3fe608060405234801561000f575f80fd5b5060043610610132575f3560e01c806370a08231116100b4578063a9059cbb11610079578063a9059cbb14610282578063abb1dc4414610295578063dd62ed3e146102b0578063e4fbb609146102e8578063e735b48a1461030f578063f2fde38b14610322575f80fd5b806370a0823114610231578063715018a6146102595780637284e416146102615780638da5cb5b1461026957806395d89b411461027a575f80fd5b80632dd31000116100fa5780632dd31000146101ac578063313ce567146101eb57806332cb6b0c146101fa57806340c10f191461020b578063608a98e814610220575f80fd5b806306fdde0314610136578063095ea7b31461015457806318160ddd1461017757806323b872dd14610189578063270ef3851461019c575b5f80fd5b61013e610335565b60405161014b9190610aba565b60405180910390f35b610167610162366004610aee565b6103c5565b604051901515815260200161014b565b6002545b60405190815260200161014b565b610167610197366004610b16565b6103de565b61017b6802b5e3af16b188000081565b6101d37f000000000000000000000000000000000000000000000000000000000000000081565b6040516001600160a01b03909116815260200161014b565b6040516012815260200161014b565b61017b69d3c21bcecceda100000081565b61021e610219366004610aee565b610401565b005b61017b69010f0cf064dd5920000081565b61017b61023f366004610b4f565b6001600160a01b03165f9081526020819052604090205490565b61021e6104d9565b61013e6104ec565b6005546001600160a01b03166101d3565b61013e610578565b610167610290366004610aee565b610587565b61029d610594565b60405161014b9796959493929190610b68565b61017b6102be366004610bd2565b6001600160a01b039182165f90815260016020908152604080832093909416825291909152205490565b6101d37f000000000000000000000000000000000000000000000000000000000000000081565b61021e61031d366004610c17565b610689565b61021e610330366004610b4f565b6106a1565b60606003805461034490610cc2565b80601f016020809104026020016040519081016040528092919081815260200182805461037090610cc2565b80156103bb5780601f10610392576101008083540402835291602001916103bb565b820191905f5260205f20905b81548152906001019060200180831161039e57829003601f168201915b5050505050905090565b5f336103d28185856106e3565b60019150505b92915050565b5f336103eb8582856106f5565b6103f6858585610770565b506001949350505050565b336001600160a01b037f0000000000000000000000000000000000000000000000000000000000000000161461044a57604051630636a15760e11b815260040160405180910390fd5b69d3c21bcecceda10000008161045f60025490565b6104699190610cfa565b111561048857604051638a164f6360e01b815260040160405180910390fd5b61049282826107cd565b816001600160a01b03167f896e034966eaaf1adc54acc0f257056febbd300c9e47182cf761982cf1f5e430826040516104cd91815260200190565b60405180910390a25050565b6104e1610801565b6104ea5f61082e565b565b600680546104f990610cc2565b80601f016020809104026020016040519081016040528092919081815260200182805461052590610cc2565b80156105705780601f1061054757610100808354040283529160200191610570565b820191905f5260205f20905b81548152906001019060200180831161055357829003601f168201915b505050505081565b60606004805461034490610cc2565b5f336103d2818585610770565b6060805f805f8060606105a5610335565b6105ad610578565b60025469d3c21bcecceda10000006802b5e3af16b18800007f000000000000000000000000000000000000000000000000000000000000000060068080546105f490610cc2565b80601f016020809104026020016040519081016040528092919081815260200182805461062090610cc2565b801561066b5780601f106106425761010080835404028352916020019161066b565b820191905f5260205f20905b81548152906001019060200180831161064e57829003601f168201915b50505050509050965096509650965096509650965090919293949596565b610691610801565b600661069d8282610d66565b5050565b6106a9610801565b6001600160a01b0381166106d757604051631e4fbdf760e01b81525f60048201526024015b60405180910390fd5b6106e08161082e565b50565b6106f0838383600161087f565b505050565b6001600160a01b038381165f908152600160209081526040808320938616835292905220545f19811461076a578181101561075c57604051637dc7a0d960e11b81526001600160a01b038416600482015260248101829052604481018390526064016106ce565b61076a84848484035f61087f565b50505050565b6001600160a01b03831661079957604051634b637e8f60e11b81525f60048201526024016106ce565b6001600160a01b0382166107c25760405163ec442f0560e01b81525f60048201526024016106ce565b6106f0838383610951565b6001600160a01b0382166107f65760405163ec442f0560e01b81525f60048201526024016106ce565b61069d5f8383610951565b6005546001600160a01b031633146104ea5760405163118cdaa760e01b81523360048201526024016106ce565b600580546001600160a01b038381166001600160a01b0319831681179093556040519116919082907f8be0079c531659141344cd1fd0a4f28419497f9722a3daafe3b4186f6b6457e0905f90a35050565b6001600160a01b0384166108a85760405163e602df0560e01b81525f60048201526024016106ce565b6001600160a01b0383166108d157604051634a1406b160e11b81525f60048201526024016106ce565b6001600160a01b038085165f908152600160209081526040808320938716835292905220829055801561076a57826001600160a01b0316846001600160a01b03167f8c5be1e5ebec7d5bd14f71427d1e84f3dd0314c0f7b2291e5b200ac8c7c3b9258460405161094391815260200190565b60405180910390a350505050565b6001600160a01b03831661097b578060025f8282546109709190610cfa565b909155506109eb9050565b6001600160a01b0383165f90815260208190526040902054818110156109cd5760405163391434e360e21b81526001600160a01b038516600482015260248101829052604481018390526064016106ce565b6001600160a01b0384165f9081526020819052604090209082900390555b6001600160a01b038216610a0757600280548290039055610a25565b6001600160a01b0382165f9081526020819052604090208054820190555b816001600160a01b0316836001600160a01b03167fddf252ad1be2c89b69c2b068fc378daa952ba7f163c4a11628f55a4df523b3ef83604051610a6a91815260200190565b60405180910390a3505050565b5f81518084525f5b81811015610a9b57602081850181015186830182015201610a7f565b505f602082860101526020601f19601f83011685010191505092915050565b602081525f610acc6020830184610a77565b9392505050565b80356001600160a01b0381168114610ae9575f80fd5b919050565b5f8060408385031215610aff575f80fd5b610b0883610ad3565b946020939093013593505050565b5f805f60608486031215610b28575f80fd5b610b3184610ad3565b9250610b3f60208501610ad3565b9150604084013590509250925092565b5f60208284031215610b5f575f80fd5b610acc82610ad3565b60e081525f610b7a60e083018a610a77565b8281036020840152610b8c818a610a77565b6040840189905260608401889052608084018790526001600160a01b03861660a085015283810360c08501529050610bc48185610a77565b9a9950505050505050505050565b5f8060408385031215610be3575f80fd5b610bec83610ad3565b9150610bfa60208401610ad3565b90509250929050565b634e487b7160e01b5f52604160045260245ffd5b5f60208284031215610c27575f80fd5b813567ffffffffffffffff80821115610c3e575f80fd5b818401915084601f830112610c51575f80fd5b813581811115610c6357610c63610c03565b604051601f8201601f19908116603f01168101908382118183101715610c8b57610c8b610c03565b81604052828152876020848701011115610ca3575f80fd5b826020860160208301375f928101602001929092525095945050505050565b600181811c90821680610cd657607f821691505b602082108103610cf457634e487b7160e01b5f52602260045260245ffd5b50919050565b808201808211156103d857634e487b7160e01b5f52601160045260245ffd5b601f8211156106f0575f81815260208120601f850160051c81016020861015610d3f5750805b601f850160051c820191505b81811015610d5e57828155600101610d4b565b505050505050565b815167ffffffffffffffff811115610d8057610d80610c03565b610d9481610d8e8454610cc2565b84610d19565b602080601f831160018114610dc7575f8415610db05750858301515b5f19600386901b1c1916600185901b178555610d5e565b5f85815260208120601f198616915b82811015610df557888601518255948401946001909101908401610dd6565b5085821015610e1257878501515f19600388901b60f8161c191681555b5050505050600190811b0190555056fea26469706673582212205f3e05af5a34ffa7c3215c63244fa4b95d9918b164a3ce10c79cf614563da4ec64736f6c63430008140033a2646970667358221220e39abb14b8202139b9bbced332dcc44f347c32376e621105e95eb15494b30e7d64736f6c63430008140033","linkReferences":{}},"methodIdentifiers":{"allTokens(uint256)":"634282af","claimTokens(address)":"df8de3e7","createToken((string,string,string))":"35e142c9","creatorToToken(address)":"15a2466c","getAllTokens()":"2a5c792a","getClaimStats(address)":"aaf820a6","getTokenByCreator(address)":"049b3409","getTokenCount()":"78a89567","getTokenDetails(address)":"88aa8bee","hasClaimed(address,address)":"89266f60","hasCreatedToken(address)":"7e1cc912","hasUserClaimed(address,address)":"8d987982","isValidToken(address)":"c1876453","owner()":"8da5cb5b","renounceOwnership()":"715018a6","transferOwnership(address)":"f2fde38b"},"id":27}