{"abi":[{"type":"constructor","inputs":[{"name":"name_","type":"string","internalType":"string"},{"name":"symbol_","type":"string","internalType":"string"},{"name":"creator_","type":"address","internalType":"address"},{"name":"description_","type":"string","internalType":"string"}],"stateMutability":"nonpayable"},{"type":"function","name":"CLAIM_AMOUNT","inputs":[],"outputs":[{"name":"","type":"uint256","internalType":"uint256"}],"stateMutability":"view"},{"type":"function","name":"CREATOR","inputs":[],"outputs":[{"name":"","type":"address","internalType":"address"}],"stateMutability":"view"},{"type":"function","name":"CREATOR_INITIAL_AMOUNT","inputs":[],"outputs":[{"name":"","type":"uint256","internalType":"uint256"}],"stateMutability":"view"},{"type":"function","name":"FACTORY","inputs":[],"outputs":[{"name":"","type":"address","internalType":"address"}],"stateMutability":"view"},{"type":"function","name":"MAX_SUPPLY","inputs":[],"outputs":[{"name":"","type":"uint256","internalType":"uint256"}],"stateMutability":"view"},{"type":"function","name":"allowance","inputs":[{"name":"owner","type":"address","internalType":"address"},{"name":"spender","type":"address","internalType":"address"}],"outputs":[{"name":"","type":"uint256","internalType":"uint256"}],"stateMutability":"view"},{"type":"function","name":"approve","inputs":[{"name":"spender","type":"address","internalType":"address"},{"name":"value","type":"uint256","internalType":"uint256"}],"outputs":[{"name":"","type":"bool","internalType":"bool"}],"stateMutability":"nonpayable"},{"type":"function","name":"balanceOf","inputs":[{"name":"account","type":"address","internalType":"address"}],"outputs":[{"name":"","type":"uint256","internalType":"uint256"}],"stateMutability":"view"},{"type":"function","name":"decimals","inputs":[],"outputs":[{"name":"","type":"uint8","internalType":"uint8"}],"stateMutability":"view"},{"type":"function","name":"description","inputs":[],"outputs":[{"name":"","type":"string","internalType":"string"}],"stateMutability":"view"},{"type":"function","name":"getTokenInfo","inputs":[],"outputs":[{"name":"name_","type":"string","internalType":"string"},{"name":"symbol_","type":"string","internalType":"string"},{"name":"totalSupply_","type":"uint256","internalType":"uint256"},{"name":"maxSupply_","type":"uint256","internalType":"uint256"},{"name":"claimAmount_","type":"uint256","internalType":"uint256"},{"name":"creator_","type":"address","internalType":"address"},{"name":"description_","type":"string","internalType":"string"}],"stateMutability":"view"},{"type":"function","name":"mint","inputs":[{"name":"to","type":"address","internalType":"address"},{"name":"amount","type":"uint256","internalType":"uint256"}],"outputs":[],"stateMutability":"nonpayable"},{"type":"function","name":"name","inputs":[],"outputs":[{"name":"","type":"string","internalType":"string"}],"stateMutability":"view"},{"type":"function","name":"owner","inputs":[],"outputs":[{"name":"","type":"address","internalType":"address"}],"stateMutability":"view"},{"type":"function","name":"renounceOwnership","inputs":[],"outputs":[],"stateMutability":"nonpayable"},{"type":"function","name":"symbol","inputs":[],"outputs":[{"name":"","type":"string","internalType":"string"}],"stateMutability":"view"},{"type":"function","name":"totalSupply","inputs":[],"outputs":[{"name":"","type":"uint256","internalType":"uint256"}],"stateMutability":"view"},{"type":"function","name":"transfer","inputs":[{"name":"to","type":"address","internalType":"address"},{"name":"value","type":"uint256","internalType":"uint256"}],"outputs":[{"name":"","type":"bool","internalType":"bool"}],"stateMutability":"nonpayable"},{"type":"function","name":"transferFrom","inputs":[{"name":"from","type":"address","internalType":"address"},{"name":"to","type":"address","internalType":"address"},{"name":"value","type":"uint256","internalType":"uint256"}],"outputs":[{"name":"","type":"bool","internalType":"bool"}],"stateMutability":"nonpayable"},{"type":"function","name":"transferOwnership","inputs":[{"name":"newOwner","type":"address","internalType":"address"}],"outputs":[],"stateMutability":"nonpayable"},{"type":"function","name":"updateDescription","inputs":[{"name":"newDescription","type":"string","internalType":"string"}],"outputs":[],"stateMutability":"nonpayable"},{"type":"event","name":"Approval","inputs":[{"name":"owner","type":"address","indexed":true,"internalType":"address"},{"name":"spender","type":"address","indexed":true,"internalType":"address"},{"name":"value","type":"uint256","indexed":false,"internalType":"uint256"}],"anonymous":false},{"type":"event","name":"OwnershipTransferred","inputs":[{"name":"previousOwner","type":"address","indexed":true,"internalType":"address"},{"name":"newOwner","type":"address","indexed":true,"internalType":"address"}],"anonymous":false},{"type":"event","name":"TokensClaimed","inputs":[{"name":"claimer","type":"address","indexed":true,"internalType":"address"},{"name":"amount","type":"uint256","indexed":false,"internalType":"uint256"}],"anonymous":false},{"type":"event","name":"Transfer","inputs":[{"name":"from","type":"address","indexed":true,"internalType":"address"},{"name":"to","type":"address","indexed":true,"internalType":"address"},{"name":"value","type":"uint256","indexed":false,"internalType":"uint256"}],"anonymous":false},{"type":"error","name":"ERC20InsufficientAllowance","inputs":[{"name":"spender","type":"address","internalType":"address"},{"name":"allowance","type":"uint256","internalType":"uint256"},{"name":"needed","type":"uint256","internalType":"uint256"}]},{"type":"error","name":"ERC20InsufficientBalance","inputs":[{"name":"sender","type":"address","internalType":"address"},{"name":"balance","type":"uint256","internalType":"uint256"},{"name":"needed","type":"uint256","internalType":"uint256"}]},{"type":"error","name":"ERC20InvalidApprover","inputs":[{"name":"approver","type":"address","internalType":"address"}]},{"type":"error","name":"ERC20InvalidReceiver","inputs":[{"name":"receiver","type":"address","internalType":"address"}]},{"type":"error","name":"ERC20InvalidSender","inputs":[{"name":"sender","type":"address","internalType":"address"}]},{"type":"error","name":"ERC20InvalidSpender","inputs":[{"name":"spender","type":"address","internalType":"address"}]},{"type":"error","name":"InsufficientSupply","inputs":[]},{"type":"error","name":"MaxSupplyExceeded","inputs":[]},{"type":"error","name":"OnlyFactory","inputs":[]},{"type":"error","name":"OwnableInvalidOwner","inputs":[{"name":"owner","type":"address","internalType":"address"}]},{"type":"error","name":"OwnableUnauthorizedAccount","inputs":[{"name":"account","type":"address","internalType":"address"}]}],"bytecode":{"object":"0x60c060405234801562000010575f80fd5b50604051620013f9380380620013f983398101604081905262000033916200034b565b818484600362000044838262000483565b50600462000053828262000483565b5050506001600160a01b0381166200008557604051631e4fbdf760e01b81525f60048201526024015b60405180910390fd5b6200009081620000d1565b50336080526001600160a01b03821660a0526006620000b0828262000483565b50620000c78269010f0cf064dd5920000062000122565b5050505062000571565b600580546001600160a01b038381166001600160a01b0319831681179093556040519116919082907f8be0079c531659141344cd1fd0a4f28419497f9722a3daafe3b4186f6b6457e0905f90a35050565b6001600160a01b0382166200014d5760405163ec442f0560e01b81525f60048201526024016200007c565b6200015a5f83836200015e565b5050565b6001600160a01b0383166200018c578060025f8282546200018091906200054b565b90915550620001fe9050565b6001600160a01b0383165f9081526020819052604090205481811015620001e05760405163391434e360e21b81526001600160a01b038516600482015260248101829052604481018390526064016200007c565b6001600160a01b0384165f9081526020819052604090209082900390555b6001600160a01b0382166200021c576002805482900390556200023a565b6001600160a01b0382165f9081526020819052604090208054820190555b816001600160a01b0316836001600160a01b03167fddf252ad1be2c89b69c2b068fc378daa952ba7f163c4a11628f55a4df523b3ef836040516200028091815260200190565b60405180910390a3505050565b634e487b7160e01b5f52604160045260245ffd5b5f82601f830112620002b1575f80fd5b81516001600160401b0380821115620002ce57620002ce6200028d565b604051601f8301601f19908116603f01168101908282118183101715620002f957620002f96200028d565b8160405283815260209250868385880101111562000315575f80fd5b5f91505b8382101562000338578582018301518183018401529082019062000319565b5f93810190920192909252949350505050565b5f805f80608085870312156200035f575f80fd5b84516001600160401b038082111562000376575f80fd5b6200038488838901620002a1565b955060208701519150808211156200039a575f80fd5b620003a888838901620002a1565b604088015190955091506001600160a01b0382168214620003c7575f80fd5b606087015191935080821115620003dc575f80fd5b50620003eb87828801620002a1565b91505092959194509250565b600181811c908216806200040c57607f821691505b6020821081036200042b57634e487b7160e01b5f52602260045260245ffd5b50919050565b601f8211156200047e575f81815260208120601f850160051c81016020861015620004595750805b601f850160051c820191505b818110156200047a5782815560010162000465565b5050505b505050565b81516001600160401b038111156200049f576200049f6200028d565b620004b781620004b08454620003f7565b8462000431565b602080601f831160018114620004ed575f8415620004d55750858301515b5f19600386901b1c1916600185901b1785556200047a565b5f85815260208120601f198616915b828110156200051d57888601518255948401946001909101908401620004fc565b50858210156200053b57878501515f19600388901b60f8161c191681555b5050505050600190811b01905550565b808201808211156200056b57634e487b7160e01b5f52601160045260245ffd5b92915050565b60805160a051610e58620005a15f395f81816102ed01526105c701525f81816101b1015261040c0152610e585ff3fe608060405234801561000f575f80fd5b5060043610610132575f3560e01c806370a08231116100b4578063a9059cbb11610079578063a9059cbb14610282578063abb1dc4414610295578063dd62ed3e146102b0578063e4fbb609146102e8578063e735b48a1461030f578063f2fde38b14610322575f80fd5b806370a0823114610231578063715018a6146102595780637284e416146102615780638da5cb5b1461026957806395d89b411461027a575f80fd5b80632dd31000116100fa5780632dd31000146101ac578063313ce567146101eb57806332cb6b0c146101fa57806340c10f191461020b578063608a98e814610220575f80fd5b806306fdde0314610136578063095ea7b31461015457806318160ddd1461017757806323b872dd14610189578063270ef3851461019c575b5f80fd5b61013e610335565b60405161014b9190610aba565b60405180910390f35b610167610162366004610aee565b6103c5565b604051901515815260200161014b565b6002545b60405190815260200161014b565b610167610197366004610b16565b6103de565b61017b6802b5e3af16b188000081565b6101d37f000000000000000000000000000000000000000000000000000000000000000081565b6040516001600160a01b03909116815260200161014b565b6040516012815260200161014b565b61017b69d3c21bcecceda100000081565b61021e610219366004610aee565b610401565b005b61017b69010f0cf064dd5920000081565b61017b61023f366004610b4f565b6001600160a01b03165f9081526020819052604090205490565b61021e6104d9565b61013e6104ec565b6005546001600160a01b03166101d3565b61013e610578565b610167610290366004610aee565b610587565b61029d610594565b60405161014b9796959493929190610b68565b61017b6102be366004610bd2565b6001600160a01b039182165f90815260016020908152604080832093909416825291909152205490565b6101d37f000000000000000000000000000000000000000000000000000000000000000081565b61021e61031d366004610c17565b610689565b61021e610330366004610b4f565b6106a1565b60606003805461034490610cc2565b80601f016020809104026020016040519081016040528092919081815260200182805461037090610cc2565b80156103bb5780601f10610392576101008083540402835291602001916103bb565b820191905f5260205f20905b81548152906001019060200180831161039e57829003601f168201915b5050505050905090565b5f336103d28185856106e3565b60019150505b92915050565b5f336103eb8582856106f5565b6103f6858585610770565b506001949350505050565b336001600160a01b037f0000000000000000000000000000000000000000000000000000000000000000161461044a57604051630636a15760e11b815260040160405180910390fd5b69d3c21bcecceda10000008161045f60025490565b6104699190610cfa565b111561048857604051638a164f6360e01b815260040160405180910390fd5b61049282826107cd565b816001600160a01b03167f896e034966eaaf1adc54acc0f257056febbd300c9e47182cf761982cf1f5e430826040516104cd91815260200190565b60405180910390a25050565b6104e1610801565b6104ea5f61082e565b565b600680546104f990610cc2565b80601f016020809104026020016040519081016040528092919081815260200182805461052590610cc2565b80156105705780601f1061054757610100808354040283529160200191610570565b820191905f5260205f20905b81548152906001019060200180831161055357829003601f168201915b505050505081565b60606004805461034490610cc2565b5f336103d2818585610770565b6060805f805f8060606105a5610335565b6105ad610578565b60025469d3c21bcecceda10000006802b5e3af16b18800007f000000000000000000000000000000000000000000000000000000000000000060068080546105f490610cc2565b80601f016020809104026020016040519081016040528092919081815260200182805461062090610cc2565b801561066b5780601f106106425761010080835404028352916020019161066b565b820191905f5260205f20905b81548152906001019060200180831161064e57829003601f168201915b50505050509050965096509650965096509650965090919293949596565b610691610801565b600661069d8282610d66565b5050565b6106a9610801565b6001600160a01b0381166106d757604051631e4fbdf760e01b81525f60048201526024015b60405180910390fd5b6106e08161082e565b50565b6106f0838383600161087f565b505050565b6001600160a01b038381165f908152600160209081526040808320938616835292905220545f19811461076a578181101561075c57604051637dc7a0d960e11b81526001600160a01b038416600482015260248101829052604481018390526064016106ce565b61076a84848484035f61087f565b50505050565b6001600160a01b03831661079957604051634b637e8f60e11b81525f60048201526024016106ce565b6001600160a01b0382166107c25760405163ec442f0560e01b81525f60048201526024016106ce565b6106f0838383610951565b6001600160a01b0382166107f65760405163ec442f0560e01b81525f60048201526024016106ce565b61069d5f8383610951565b6005546001600160a01b031633146104ea5760405163118cdaa760e01b81523360048201526024016106ce565b600580546001600160a01b038381166001600160a01b0319831681179093556040519116919082907f8be0079c531659141344cd1fd0a4f28419497f9722a3daafe3b4186f6b6457e0905f90a35050565b6001600160a01b0384166108a85760405163e602df0560e01b81525f60048201526024016106ce565b6001600160a01b0383166108d157604051634a1406b160e11b81525f60048201526024016106ce565b6001600160a01b038085165f908152600160209081526040808320938716835292905220829055801561076a57826001600160a01b0316846001600160a01b03167f8c5be1e5ebec7d5bd14f71427d1e84f3dd0314c0f7b2291e5b200ac8c7c3b9258460405161094391815260200190565b60405180910390a350505050565b6001600160a01b03831661097b578060025f8282546109709190610cfa565b909155506109eb9050565b6001600160a01b0383165f90815260208190526040902054818110156109cd5760405163391434e360e21b81526001600160a01b038516600482015260248101829052604481018390526064016106ce565b6001600160a01b0384165f9081526020819052604090209082900390555b6001600160a01b038216610a0757600280548290039055610a25565b6001600160a01b0382165f9081526020819052604090208054820190555b816001600160a01b0316836001600160a01b03167fddf252ad1be2c89b69c2b068fc378daa952ba7f163c4a11628f55a4df523b3ef83604051610a6a91815260200190565b60405180910390a3505050565b5f81518084525f5b81811015610a9b57602081850181015186830182015201610a7f565b505f602082860101526020601f19601f83011685010191505092915050565b602081525f610acc6020830184610a77565b9392505050565b80356001600160a01b0381168114610ae9575f80fd5b919050565b5f8060408385031215610aff575f80fd5b610b0883610ad3565b946020939093013593505050565b5f805f60608486031215610b28575f80fd5b610b3184610ad3565b9250610b3f60208501610ad3565b9150604084013590509250925092565b5f60208284031215610b5f575f80fd5b610acc82610ad3565b60e081525f610b7a60e083018a610a77565b8281036020840152610b8c818a610a77565b6040840189905260608401889052608084018790526001600160a01b03861660a085015283810360c08501529050610bc48185610a77565b9a9950505050505050505050565b5f8060408385031215610be3575f80fd5b610bec83610ad3565b9150610bfa60208401610ad3565b90509250929050565b634e487b7160e01b5f52604160045260245ffd5b5f60208284031215610c27575f80fd5b813567ffffffffffffffff80821115610c3e575f80fd5b818401915084601f830112610c51575f80fd5b813581811115610c6357610c63610c03565b604051601f8201601f19908116603f01168101908382118183101715610c8b57610c8b610c03565b81604052828152876020848701011115610ca3575f80fd5b826020860160208301375f928101602001929092525095945050505050565b600181811c90821680610cd657607f821691505b602082108103610cf457634e487b7160e01b5f52602260045260245ffd5b50919050565b808201808211156103d857634e487b7160e01b5f52601160045260245ffd5b601f8211156106f0575f81815260208120601f850160051c81016020861015610d3f5750805b601f850160051c820191505b81811015610d5e57828155600101610d4b565b505050505050565b815167ffffffffffffffff811115610d8057610d80610c03565b610d9481610d8e8454610cc2565b84610d19565b602080601f831160018114610dc7575f8415610db05750858301515b5f19600386901b1c1916600185901b178555610d5e565b5f85815260208120601f198616915b82811015610df557888601518255948401946001909101908401610dd6565b5085821015610e1257878501515f19600388901b60f8161c191681555b5050505050600190811b0190555056fea26469706673582212205f3e05af5a34ffa7c3215c63244fa4b95d9918b164a3ce10c79cf614563da4ec64736f6c63430008140033","linkReferences":{}},"methodIdentifiers":{"CLAIM_AMOUNT()":"270ef385","CREATOR()":"e4fbb609","CREATOR_INITIAL_AMOUNT()":"608a98e8","FACTORY()":"2dd31000","MAX_SUPPLY()":"32cb6b0c","allowance(address,address)":"dd62ed3e","approve(address,uint256)":"095ea7b3","balanceOf(address)":"70a08231","decimals()":"313ce567","description()":"7284e416","getTokenInfo()":"abb1dc44","mint(address,uint256)":"40c10f19","name()":"06fdde03","owner()":"8da5cb5b","renounceOwnership()":"715018a6","symbol()":"95d89b41","totalSupply()":"18160ddd","transfer(address,uint256)":"a9059cbb","transferFrom(address,address,uint256)":"23b872dd","transferOwnership(address)":"f2fde38b","updateDescription(string)":"e735b48a"},"id":30}